{
  "contractName": "Vault",
  "abi": [
    {
      "inputs": [],
      "stateMutability": "nonpayable",
      "type": "constructor"
    },
    {
      "inputs": [],
      "name": "someConst",
      "outputs": [
        {
          "internalType": "uint256",
          "name": "",
          "type": "uint256"
        }
      ],
      "stateMutability": "view",
      "type": "function",
      "constant": true
    }
  ],
  "bytecode": "0x6080604052607b60005533600160006101000a81548173ffffffffffffffffffffffffffffffffffffffff021916908373ffffffffffffffffffffffffffffffffffffffff16021790555060018060146101000a81548160ff021916908315150217905550601e600160156101000a81548161ffff021916908361ffff1602179055506040518060600160405280600060ff168152602001600160ff168152602001600260ff1681525060039060036100b99291906100f6565b503480156100c657600080fd5b507f77656e63696f000000000000000000000000000000000000000000000000000060001b600281905550610158565b826003810192821561012a579160200282015b82811115610129578251829060ff16905591602001919060010190610109565b5b509050610137919061013b565b5090565b5b8082111561015457600081600090555060010161013c565b5090565b60b2806101666000396000f3fe6080604052348015600f57600080fd5b506004361060285760003560e01c806359d168b614602d575b600080fd5b60336047565b604051603e91906063565b60405180910390f35b607b81565b6000819050919050565b605d81604c565b82525050565b6000602082019050607660008301846056565b9291505056fea26469706673582212207f097fb480658a096724837434932370d5cbf7b22e40ffb1659a00bc7c8760ae64736f6c634300080b0033",
  "immutableReferences": {},
  "source": "// SPDX-License-Identifier: MIT\npragma solidity ^0.8.11;\n\n/*\n\nContract deployed on Ropsten\n0xa3aCebaea76e454cbcBb38850F87397C4Ae00b64\n*/\n\n/*\n# Storage\n- 2 ** 256 slots\n- 32 bytes for each slot\n- data is stored sequentially in the order of declaration\n- storage is optimized to save space. If neighboring variables fit in a single\n  32 bytes, then they are packed into the same slot, starting from the right\n*/\n\ncontract Vault {\n    // slot 0\n    uint private count = 123;\n    // slot 1\n    address private owner = msg.sender;\n    bool private isTrue = true;\n    uint16 private u16 = 30;\n    // slot 2\n    bytes32 private password;\n\n    // constants do not use storage\n    uint public constant someConst = 123;\n\n    // slot 3, 4, 5 (one for each array element)\n    uint[3] private data = [0,1,2];\n    \n    \n    constructor (){\n        password = 0x77656e63696f0000000000000000000000000000000000000000000000000000;\n    }\n\n}\n\n",
  "sourcePath": "C:\\Users\\wdmin\\Documents\\solidity_projects\\accessmemory\\contracts\\Vault.sol",
  "compiler": {
    "name": "solc",
    "version": "0.8.11+commit.d7f03943.Emscripten.clang"
  },
  "schemaVersion": "3.4.5",
  "updatedAt": "2022-06-04T13:34:40.144Z",
  "networkType": "ethereum",
  "devdoc": {
    "kind": "dev",
    "methods": {},
    "version": 1
  },
  "userdoc": {
    "kind": "user",
    "methods": {},
    "version": 1
  }
}